{
  "_format": "hh-sol-artifact-1",
  "contractName": "ChainCraftRegistry",
  "sourceName": "src/ChainCraftRegistry.sol",
  "abi": [
    {
      "inputs": [],
      "stateMutability": "nonpayable",
      "type": "constructor"
    },
    {
      "anonymous": false,
      "inputs": [
        {
          "indexed": true,
          "internalType": "uint256",
          "name": "id",
          "type": "uint256"
        },
        {
          "indexed": true,
          "internalType": "address",
          "name": "contractAddress",
          "type": "address"
        },
        {
          "indexed": true,
          "internalType": "address",
          "name": "creator",
          "type": "address"
        },
        {
          "indexed": false,
          "internalType": "string",
          "name": "name",
          "type": "string"
        }
      ],
      "name": "GameRegistered",
      "type": "event"
    },
    {
      "anonymous": false,
      "inputs": [
        {
          "indexed": true,
          "internalType": "uint256",
          "name": "id",
          "type": "uint256"
        },
        {
          "indexed": false,
          "internalType": "bool",
          "name": "verified",
          "type": "bool"
        }
      ],
      "name": "GameVerified",
      "type": "event"
    },
    {
      "inputs": [],
      "name": "admin",
      "outputs": [
        {
          "internalType": "address",
          "name": "",
          "type": "address"
        }
      ],
      "stateMutability": "view",
      "type": "function"
    },
    {
      "inputs": [
        {
          "internalType": "address",
          "name": "",
          "type": "address"
        },
        {
          "internalType": "uint256",
          "name": "",
          "type": "uint256"
        }
      ],
      "name": "creatorGames",
      "outputs": [
        {
          "internalType": "uint256",
          "name": "",
          "type": "uint256"
        }
      ],
      "stateMutability": "view",
      "type": "function"
    },
    {
      "inputs": [
        {
          "internalType": "uint256",
          "name": "",
          "type": "uint256"
        }
      ],
      "name": "gameContracts",
      "outputs": [
        {
          "internalType": "address",
          "name": "contractAddress",
          "type": "address"
        },
        {
          "internalType": "address",
          "name": "creator",
          "type": "address"
        },
        {
          "internalType": "string",
          "name": "name",
          "type": "string"
        },
        {
          "internalType": "string",
          "name": "genre",
          "type": "string"
        },
        {
          "internalType": "uint256",
          "name": "deployedAt",
          "type": "uint256"
        },
        {
          "internalType": "bool",
          "name": "isVerified",
          "type": "bool"
        }
      ],
      "stateMutability": "view",
      "type": "function"
    },
    {
      "inputs": [
        {
          "internalType": "string",
          "name": "",
          "type": "string"
        },
        {
          "internalType": "uint256",
          "name": "",
          "type": "uint256"
        }
      ],
      "name": "genreGames",
      "outputs": [
        {
          "internalType": "uint256",
          "name": "",
          "type": "uint256"
        }
      ],
      "stateMutability": "view",
      "type": "function"
    },
    {
      "inputs": [
        {
          "internalType": "address",
          "name": "creator",
          "type": "address"
        }
      ],
      "name": "getCreatorGames",
      "outputs": [
        {
          "internalType": "uint256[]",
          "name": "",
          "type": "uint256[]"
        }
      ],
      "stateMutability": "view",
      "type": "function"
    },
    {
      "inputs": [
        {
          "internalType": "uint256",
          "name": "id",
          "type": "uint256"
        }
      ],
      "name": "getGameContract",
      "outputs": [
        {
          "components": [
            {
              "internalType": "address",
              "name": "contractAddress",
              "type": "address"
            },
            {
              "internalType": "address",
              "name": "creator",
              "type": "address"
            },
            {
              "internalType": "string",
              "name": "name",
              "type": "string"
            },
            {
              "internalType": "string",
              "name": "genre",
              "type": "string"
            },
            {
              "internalType": "uint256",
              "name": "deployedAt",
              "type": "uint256"
            },
            {
              "internalType": "bool",
              "name": "isVerified",
              "type": "bool"
            }
          ],
          "internalType": "struct ChainCraftRegistry.GameContract",
          "name": "",
          "type": "tuple"
        }
      ],
      "stateMutability": "view",
      "type": "function"
    },
    {
      "inputs": [
        {
          "internalType": "string",
          "name": "genre",
          "type": "string"
        }
      ],
      "name": "getGenreGames",
      "outputs": [
        {
          "internalType": "uint256[]",
          "name": "",
          "type": "uint256[]"
        }
      ],
      "stateMutability": "view",
      "type": "function"
    },
    {
      "inputs": [
        {
          "internalType": "address",
          "name": "contractAddress",
          "type": "address"
        },
        {
          "internalType": "address",
          "name": "creator",
          "type": "address"
        },
        {
          "internalType": "string",
          "name": "name",
          "type": "string"
        },
        {
          "internalType": "string",
          "name": "genre",
          "type": "string"
        }
      ],
      "name": "registerGame",
      "outputs": [
        {
          "internalType": "uint256",
          "name": "",
          "type": "uint256"
        }
      ],
      "stateMutability": "nonpayable",
      "type": "function"
    },
    {
      "inputs": [],
      "name": "totalContracts",
      "outputs": [
        {
          "internalType": "uint256",
          "name": "",
          "type": "uint256"
        }
      ],
      "stateMutability": "view",
      "type": "function"
    },
    {
      "inputs": [
        {
          "internalType": "address",
          "name": "newAdmin",
          "type": "address"
        }
      ],
      "name": "transferAdmin",
      "outputs": [],
      "stateMutability": "nonpayable",
      "type": "function"
    },
    {
      "inputs": [
        {
          "internalType": "uint256",
          "name": "id",
          "type": "uint256"
        }
      ],
      "name": "verifyGame",
      "outputs": [],
      "stateMutability": "nonpayable",
      "type": "function"
    }
  ],
  "bytecode": "0x608060405234801561000f575f80fd5b50600480546001600160a01b03191633179055610dd58061002f5f395ff3fe608060405234801561000f575f80fd5b50600436106100a6575f3560e01c806375829def1161006e57806375829def1461012b57806377aca8651461013e578063a09037a91461015e578063aa7c744314610167578063cd3b356e1461017a578063f851a4401461019f575f80fd5b80631a4b9aef146100aa57806322e5d864146100d057806323067143146100e3578063524d7daf146100f65780636fc0677e1461010b575b5f80fd5b6100bd6100b8366004610931565b6101ca565b6040519081526020015b60405180910390f35b6100bd6100de36600461098e565b610206565b6100bd6100f13660046109b6565b61021f565b610109610104366004610a36565b6103a3565b005b61011e610119366004610a36565b610443565b6040516100c79190610a9a565b610109610139366004610b15565b610606565b61015161014c366004610b35565b61066e565b6040516100c79190610b6f565b6100bd60035481565b610151610175366004610b15565b6106dc565b61018d610188366004610a36565b610743565b6040516100c796959493929190610bb2565b6004546101b2906001600160a01b031681565b6040516001600160a01b0390911681526020016100c7565b815160208184018101805160028252928201918501919091209190528054829081106101f4575f80fd5b905f5260205f20015f91509150505481565b6001602052815f5260405f2081815481106101f4575f80fd5b600380545f918261022f83610c0a565b90915550506003546040805160c0810182526001600160a01b0380891682528781166020808401918252838501898152606085018990524260808601525f60a0860181905287815291829052949020835181549084166001600160a01b0319918216178255915160018201805491909416921691909117909155915190919060028201906102bd9082610cb2565b50606082015160038201906102d29082610cb2565b506080820151600482015560a0909101516005909101805460ff19169115159190911790556001600160a01b0385165f9081526001602081815260408084208054938401815584529220018290555160029061032f908590610d72565b908152604051908190036020908101822080546001810182555f918252919020018290556001600160a01b03808716919088169083907f86de71fbab18b642da9b4dad837aa6e458d05b70bf2e4cbb5b3fc4e175c15f9290610392908990610d8d565b60405180910390a495945050505050565b6004546001600160a01b031633146103ee5760405162461bcd60e51b81526020600482015260096024820152682737ba1030b236b4b760b91b60448201526064015b60405180910390fd5b5f8181526020818152604091829020600501805460ff19166001908117909155915191825282917f19bd90467f86d39a4a2fce61ff543a07c9967f53ab898ffcb8303ec925d239bc910160405180910390a250565b61048c6040518060c001604052805f6001600160a01b031681526020015f6001600160a01b0316815260200160608152602001606081526020015f81526020015f151581525090565b5f8281526020818152604091829020825160c08101845281546001600160a01b0390811682526001830154169281019290925260028101805492939192918401916104d690610c2e565b80601f016020809104026020016040519081016040528092919081815260200182805461050290610c2e565b801561054d5780601f106105245761010080835404028352916020019161054d565b820191905f5260205f20905b81548152906001019060200180831161053057829003601f168201915b5050505050815260200160038201805461056690610c2e565b80601f016020809104026020016040519081016040528092919081815260200182805461059290610c2e565b80156105dd5780601f106105b4576101008083540402835291602001916105dd565b820191905f5260205f20905b8154815290600101906020018083116105c057829003601f168201915b50505091835250506004820154602082015260059091015460ff16151560409091015292915050565b6004546001600160a01b0316331461064c5760405162461bcd60e51b81526020600482015260096024820152682737ba1030b236b4b760b91b60448201526064016103e5565b600480546001600160a01b0319166001600160a01b0392909216919091179055565b60606002826040516106809190610d72565b90815260408051918290036020908101832080548083028501830190935282845291908301828280156106d057602002820191905f5260205f20905b8154815260200190600101908083116106bc575b50505050509050919050565b6001600160a01b0381165f908152600160209081526040918290208054835181840281018401909452808452606093928301828280156106d057602002820191905f5260205f20908154815260200190600101908083116106bc5750505050509050919050565b5f602081905290815260409020805460018201546002830180546001600160a01b0393841694929093169261077790610c2e565b80601f01602080910402602001604051908101604052809291908181526020018280546107a390610c2e565b80156107ee5780601f106107c5576101008083540402835291602001916107ee565b820191905f5260205f20905b8154815290600101906020018083116107d157829003601f168201915b50505050509080600301805461080390610c2e565b80601f016020809104026020016040519081016040528092919081815260200182805461082f90610c2e565b801561087a5780601f106108515761010080835404028352916020019161087a565b820191905f5260205f20905b81548152906001019060200180831161085d57829003601f168201915b50505050600483015460059093015491929160ff16905086565b634e487b7160e01b5f52604160045260245ffd5b5f82601f8301126108b7575f80fd5b813567ffffffffffffffff808211156108d2576108d2610894565b604051601f8301601f19908116603f011681019082821181831017156108fa576108fa610894565b81604052838152866020858801011115610912575f80fd5b836020870160208301375f602085830101528094505050505092915050565b5f8060408385031215610942575f80fd5b823567ffffffffffffffff811115610958575f80fd5b610964858286016108a8565b95602094909401359450505050565b80356001600160a01b0381168114610989575f80fd5b919050565b5f806040838503121561099f575f80fd5b6109a883610973565b946020939093013593505050565b5f805f80608085870312156109c9575f80fd5b6109d285610973565b93506109e060208601610973565b9250604085013567ffffffffffffffff808211156109fc575f80fd5b610a08888389016108a8565b93506060870135915080821115610a1d575f80fd5b50610a2a878288016108a8565b91505092959194509250565b5f60208284031215610a46575f80fd5b5035919050565b5f5b83811015610a67578181015183820152602001610a4f565b50505f910152565b5f8151808452610a86816020860160208601610a4d565b601f01601f19169290920160200192915050565b602081525f60018060a01b0380845116602084015280602085015116604084015250604083015160c06060840152610ad560e0840182610a6f565b90506060840151601f19848303016080850152610af28282610a6f565b915050608084015160a084015260a0840151151560c08401528091505092915050565b5f60208284031215610b25575f80fd5b610b2e82610973565b9392505050565b5f60208284031215610b45575f80fd5b813567ffffffffffffffff811115610b5b575f80fd5b610b67848285016108a8565b949350505050565b602080825282518282018190525f9190848201906040850190845b81811015610ba657835183529284019291840191600101610b8a565b50909695505050505050565b6001600160a01b0387811682528616602082015260c0604082018190525f90610bdd90830187610a6f565b8281036060840152610bef8187610a6f565b6080840195909552505090151560a090910152949350505050565b5f60018201610c2757634e487b7160e01b5f52601160045260245ffd5b5060010190565b600181811c90821680610c4257607f821691505b602082108103610c6057634e487b7160e01b5f52602260045260245ffd5b50919050565b601f821115610cad57805f5260205f20601f840160051c81016020851015610c8b5750805b601f840160051c820191505b81811015610caa575f8155600101610c97565b50505b505050565b815167ffffffffffffffff811115610ccc57610ccc610894565b610ce081610cda8454610c2e565b84610c66565b602080601f831160018114610d13575f8415610cfc5750858301515b5f19600386901b1c1916600185901b178555610d6a565b5f85815260208120601f198616915b82811015610d4157888601518255948401946001909101908401610d22565b5085821015610d5e57878501515f19600388901b60f8161c191681555b505060018460011b0185555b505050505050565b5f8251610d83818460208701610a4d565b9190910192915050565b602081525f610b2e6020830184610a6f56fea26469706673582212205527e34794c92e441fcae0baeb1e467e3f633a12e744dfc6dbacd51e832c648164736f6c63430008180033",
  "linkReferences": {},
  "deployedLinkReferences": {}
}